:020000040000FA
:10000000000002283730FE000230FF008030000080
:100010000000D0210000000083160000A1007F082E
:10002000A0003930A2000230A3008316000020088F
:10003000A4002108A500FF30A007031CA103250888
:10004000240403199A2804302207A400A501A50D51
:100050002308A5072408FE002508FF0080300000C3
:100060000000D0210000000083160000A7007F08D8
:10007000A6002208FE002308FF00803000000000D8
:10008000D0210000000083160000A900A5007F0811
:10009000A400A80002302207A400A501A50D230892
:1000A000A5072408FE002508FF008030000000009E
:1000B000D0210000000083160000A500AB007F08DF
:1000C000AA00A400831600002608AA002708AB0097
:1000D000FF30A607031CA7032B082A040319932843
:1000E0002808FE002908FF00803000000000BD2124
:1000F0000000000083160000AA00240883120313E6
:100100008400831383160000251883172A0883129E
:100110000313800083160000A80A0319A90AA40A81
:100120000319A50A6228063083160000A2070318E7
:10013000A30A1528000000009E280800203083161E
:100140008500831285010730831681008312851E86
:100150000B291C228316B400B50100303502031DA3
:10016000B32801303402031CA62800308316350260
:10017000031DBC28073034020318A6288316B403D5
:10018000003083128A00CB3083163407031CCA2840
:1001900083128A0A8200D128DA28E328ED28F7287A
:1001A000012983128514C830FF000030F121831229
:1001B0008510A62883120514C830FF000030F121F5
:1001C00083120510A628033083128500C830FF0073
:1001D0000030F12183128501A628053083128500A5
:1001E000C830FF000030F12183128501A6280730B6
:1001F00083128500C830FF000030F1218312850191
:10020000A628153083128500C830FF000030F12188
:1002100083128501A62883128501A628080083166B
:100220000000B7007F08B6007E08B9007D08B8005E
:100230000314B71F0310BA01BA0D3A08031928298D
:100240003609BB003709BC00BB0A0319BC0A2E29BA
:10025000831600003608BB003708BC008316000078
:100260003B08B6003C08B7000314B91F0310031C79
:1002700041293809BB003909BC00BB0A0319BC0A73
:100280004729831600003808BB003908BC008316D4
:1002900000003B08B800FD003C08B900FE0036082D
:1002A000FF003708000000007021000000008316E6
:1002B0000000B7007F08B6003A0803196A2936091A
:1002C000BA003709B800BA0A0319B80A3A08FF0099
:1002D00038086F29831600003608FF003708080029
:1002E00083120000A1007F08A0007E08A3007D0803
:1002F000A200A401A5018312000023088039031D78
:100300000130A6002608031D9C290310A20DA30D91
:1003100023082102031D8E29220820020318962992
:10032000031083120000A30CA20C9C29831200006E
:10033000A50A2508A4007B298312000023082102B6
:10034000031DA42922082002031CAE2983120000E9
:100350002208A0022308031C230FA102031083120A
:100360000000A30CA20C2408A500A4032508031D6B
:100370009C292008FF0021080800003A0319C4291D
:10038000803A0319CB2900347E08840083137F1838
:100390008317000808007F088A007E088200080092
:1003A000003A0319D829803A0319E229FF010034E1
:1003B0007E08840083137F1883170008FF00840AD7
:1003C0000008080000000000CB21FD00FE0FFF0325
:1003D000FF0A00000000CB21FC007D08FF007C0824
:1003E00008008316AC007F08AD00AE01AF01831694
:1003F0002C082F02031DFE292D082E0203181B2A8C
:10040000FB308316B0000430B100FF308316300794
:10041000B200FF30B30031080318310FB3073208C0
:10042000B0003308B10033083204031D052AAE0AB8
:100430000319AF0AF7290800831201088316BE06C4
:100440003E0DBE0D8316AD010630FD000030FE00EE
:1004500083163E088316AC00FF0000300F21831680
:10046000AD007F08AC00AE002E0AAC0008000334DB
:1004700000344B340234BD340034013400344C3485
:100480000234BE340034013400344D340234273495
:0C04900000340134003401345A340034CC
:02400E00F73F7A
:00000001FF
